{
  "_format": "hh-sol-artifact-1",
  "contractName": "ClassRegistrationSystem",
  "sourceName": "contracts/registration.sol",
  "abi": [
    {
      "inputs": [],
      "stateMutability": "nonpayable",
      "type": "constructor"
    },
    {
      "anonymous": false,
      "inputs": [
        {
          "indexed": true,
          "internalType": "uint256",
          "name": "studentId",
          "type": "uint256"
        },
        {
          "indexed": false,
          "internalType": "string",
          "name": "name",
          "type": "string"
        }
      ],
      "name": "StudentRegistered",
      "type": "event"
    },
    {
      "anonymous": false,
      "inputs": [
        {
          "indexed": true,
          "internalType": "uint256",
          "name": "studentId",
          "type": "uint256"
        }
      ],
      "name": "StudentRemoved",
      "type": "event"
    },
    {
      "inputs": [],
      "name": "admin",
      "outputs": [
        {
          "internalType": "address",
          "name": "",
          "type": "address"
        }
      ],
      "stateMutability": "view",
      "type": "function"
    },
    {
      "inputs": [],
      "name": "getAllStudents",
      "outputs": [
        {
          "components": [
            {
              "internalType": "string",
              "name": "name",
              "type": "string"
            },
            {
              "internalType": "uint256",
              "name": "studentId",
              "type": "uint256"
            }
          ],
          "internalType": "struct ClassRegistrationSystem.Student[]",
          "name": "",
          "type": "tuple[]"
        }
      ],
      "stateMutability": "view",
      "type": "function"
    },
    {
      "inputs": [
        {
          "internalType": "uint256",
          "name": "_studentId",
          "type": "uint256"
        }
      ],
      "name": "getStudent",
      "outputs": [
        {
          "internalType": "string",
          "name": "",
          "type": "string"
        },
        {
          "internalType": "uint256",
          "name": "",
          "type": "uint256"
        }
      ],
      "stateMutability": "view",
      "type": "function"
    },
    {
      "inputs": [
        {
          "internalType": "uint256",
          "name": "_studentId",
          "type": "uint256"
        },
        {
          "internalType": "string",
          "name": "_name",
          "type": "string"
        }
      ],
      "name": "registerStudent",
      "outputs": [],
      "stateMutability": "nonpayable",
      "type": "function"
    },
    {
      "inputs": [
        {
          "internalType": "uint256",
          "name": "_studentId",
          "type": "uint256"
        }
      ],
      "name": "removeStudent",
      "outputs": [],
      "stateMutability": "nonpayable",
      "type": "function"
    }
  ],
  "bytecode": "0x6080604052348015600f57600080fd5b50336000806101000a81548173ffffffffffffffffffffffffffffffffffffffff021916908373ffffffffffffffffffffffffffffffffffffffff1602179055506112908061005f6000396000f3fe608060405234801561001057600080fd5b50600436106100575760003560e01c80633f9586d41461005c578063642f9163146100785780636af83845146100a9578063e9e30927146100c5578063f851a440146100e3575b600080fd5b610076600480360381019061007191906109a6565b610101565b005b610092600480360381019061008d9190610a02565b6102dc565b6040516100a0929190610abd565b60405180910390f35b6100c360048036038101906100be9190610a02565b6103fa565b005b6100cd610601565b6040516100da9190610c45565b60405180910390f35b6100eb61077b565b6040516100f89190610ca8565b60405180910390f35b60008054906101000a900473ffffffffffffffffffffffffffffffffffffffff1673ffffffffffffffffffffffffffffffffffffffff163373ffffffffffffffffffffffffffffffffffffffff161461018f576040517f08c379a000000000000000000000000000000000000000000000000000000000815260040161018690610d35565b60405180910390fd5b60008151116101d3576040517f08c379a00000000000000000000000000000000000000000000000000000000081526004016101ca90610da1565b60405180910390fd5b600060016000848152602001908152602001600020600101541461022c576040517f08c379a000000000000000000000000000000000000000000000000000000000815260040161022390610e0d565b60405180910390fd5b6040518060400160405280828152602001838152506001600084815260200190815260200160002060008201518160000190816102699190611039565b50602082015181600101559050506002829080600181540180825580915050600190039060005260206000200160009091909190915055817f82972a188d7a560cf772804ac1cadfb42df2654ff1ded99159259c287ead2630826040516102d0919061110b565b60405180910390a25050565b6060600080600160008581526020019081526020016000206001015403610338576040517f08c379a000000000000000000000000000000000000000000000000000000000815260040161032f90611179565b60405180910390fd5b60016000848152602001908152602001600020600001600160008581526020019081526020016000206001015481805461037190610e5c565b80601f016020809104026020016040519081016040528092919081815260200182805461039d90610e5c565b80156103ea5780601f106103bf576101008083540402835291602001916103ea565b820191906000526020600020905b8154815290600101906020018083116103cd57829003601f168201915b5050505050915091509150915091565b60008054906101000a900473ffffffffffffffffffffffffffffffffffffffff1673ffffffffffffffffffffffffffffffffffffffff163373ffffffffffffffffffffffffffffffffffffffff1614610488576040517f08c379a000000000000000000000000000000000000000000000000000000000815260040161047f90610d35565b60405180910390fd5b60006001600083815260200190815260200160002060010154036104e1576040517f08c379a00000000000000000000000000000000000000000000000000000000081526004016104d890611179565b60405180910390fd5b6001600082815260200190815260200160002060008082016000610505919061079f565b6001820160009055505060005b6002805490508110156105d057816002828154811061053457610533611199565b5b9060005260206000200154036105c3576002600160028054905061055891906111f7565b8154811061056957610568611199565b5b90600052602060002001546002828154811061058857610587611199565b5b906000526020600020018190555060028054806105a8576105a761122b565b5b600190038181906000526020600020016000905590556105d0565b8080600101915050610512565b50807f59341c48fd0b57ee9c153818be62372ef211cc499da6c2c6d5b8fe49721f36c560405160405180910390a250565b6060600060028054905067ffffffffffffffff8111156106245761062361087b565b5b60405190808252806020026020018201604052801561065d57816020015b61064a6107df565b8152602001906001900390816106425790505b50905060005b60028054905081101561077357600160006002838154811061068857610687611199565b5b906000526020600020015481526020019081526020016000206040518060400160405290816000820180546106bc90610e5c565b80601f01602080910402602001604051908101604052809291908181526020018280546106e890610e5c565b80156107355780601f1061070a57610100808354040283529160200191610735565b820191906000526020600020905b81548152906001019060200180831161071857829003601f168201915b5050505050815260200160018201548152505082828151811061075b5761075a611199565b5b60200260200101819052508080600101915050610663565b508091505090565b60008054906101000a900473ffffffffffffffffffffffffffffffffffffffff1681565b5080546107ab90610e5c565b6000825580601f106107bd57506107dc565b601f0160209004906000526020600020908101906107db91906107f9565b5b50565b604051806040016040528060608152602001600081525090565b5b808211156108125760008160009055506001016107fa565b5090565b6000604051905090565b600080fd5b600080fd5b6000819050919050565b61083d8161082a565b811461084857600080fd5b50565b60008135905061085a81610834565b92915050565b600080fd5b600080fd5b6000601f19601f8301169050919050565b7f4e487b7100000000000000000000000000000000000000000000000000000000600052604160045260246000fd5b6108b38261086a565b810181811067ffffffffffffffff821117156108d2576108d161087b565b5b80604052505050565b60006108e5610816565b90506108f182826108aa565b919050565b600067ffffffffffffffff8211156109115761091061087b565b5b61091a8261086a565b9050602081019050919050565b82818337600083830152505050565b6000610949610944846108f6565b6108db565b90508281526020810184848401111561096557610964610865565b5b610970848285610927565b509392505050565b600082601f83011261098d5761098c610860565b5b813561099d848260208601610936565b91505092915050565b600080604083850312156109bd576109bc610820565b5b60006109cb8582860161084b565b925050602083013567ffffffffffffffff8111156109ec576109eb610825565b5b6109f885828601610978565b9150509250929050565b600060208284031215610a1857610a17610820565b5b6000610a268482850161084b565b91505092915050565b600081519050919050565b600082825260208201905092915050565b60005b83811015610a69578082015181840152602081019050610a4e565b60008484015250505050565b6000610a8082610a2f565b610a8a8185610a3a565b9350610a9a818560208601610a4b565b610aa38161086a565b840191505092915050565b610ab78161082a565b82525050565b60006040820190508181036000830152610ad78185610a75565b9050610ae66020830184610aae565b9392505050565b600081519050919050565b600082825260208201905092915050565b6000819050602082019050919050565b600082825260208201905092915050565b6000610b3582610a2f565b610b3f8185610b19565b9350610b4f818560208601610a4b565b610b588161086a565b840191505092915050565b610b6c8161082a565b82525050565b60006040830160008301518482036000860152610b8f8282610b2a565b9150506020830151610ba46020860182610b63565b508091505092915050565b6000610bbb8383610b72565b905092915050565b6000602082019050919050565b6000610bdb82610aed565b610be58185610af8565b935083602082028501610bf785610b09565b8060005b85811015610c335784840389528151610c148582610baf565b9450610c1f83610bc3565b925060208a01995050600181019050610bfb565b50829750879550505050505092915050565b60006020820190508181036000830152610c5f8184610bd0565b905092915050565b600073ffffffffffffffffffffffffffffffffffffffff82169050919050565b6000610c9282610c67565b9050919050565b610ca281610c87565b82525050565b6000602082019050610cbd6000830184610c99565b92915050565b7f4f6e6c792061646d696e2063616e20706572666f726d2074686973206163746960008201527f6f6e000000000000000000000000000000000000000000000000000000000000602082015250565b6000610d1f602283610a3a565b9150610d2a82610cc3565b604082019050919050565b60006020820190508181036000830152610d4e81610d12565b9050919050565b7f4e616d652063616e6e6f7420626520656d707479000000000000000000000000600082015250565b6000610d8b601483610a3a565b9150610d9682610d55565b602082019050919050565b60006020820190508181036000830152610dba81610d7e565b9050919050565b7f53747564656e7420616c72656164792072656769737465726564000000000000600082015250565b6000610df7601a83610a3a565b9150610e0282610dc1565b602082019050919050565b60006020820190508181036000830152610e2681610dea565b9050919050565b7f4e487b7100000000000000000000000000000000000000000000000000000000600052602260045260246000fd5b60006002820490506001821680610e7457607f821691505b602082108103610e8757610e86610e2d565b5b50919050565b60008190508160005260206000209050919050565b60006020601f8301049050919050565b600082821b905092915050565b600060088302610eef7fffffffffffffffffffffffffffffffffffffffffffffffffffffffffffffffff82610eb2565b610ef98683610eb2565b95508019841693508086168417925050509392505050565b6000819050919050565b6000610f36610f31610f2c8461082a565b610f11565b61082a565b9050919050565b6000819050919050565b610f5083610f1b565b610f64610f5c82610f3d565b848454610ebf565b825550505050565b600090565b610f79610f6c565b610f84818484610f47565b505050565b5b81811015610fa857610f9d600082610f71565b600181019050610f8a565b5050565b601f821115610fed57610fbe81610e8d565b610fc784610ea2565b81016020851015610fd6578190505b610fea610fe285610ea2565b830182610f89565b50505b505050565b600082821c905092915050565b600061101060001984600802610ff2565b1980831691505092915050565b60006110298383610fff565b9150826002028217905092915050565b61104282610a2f565b67ffffffffffffffff81111561105b5761105a61087b565b5b6110658254610e5c565b611070828285610fac565b600060209050601f8311600181146110a35760008415611091578287015190505b61109b858261101d565b865550611103565b601f1984166110b186610e8d565b60005b828110156110d9578489015182556001820191506020850194506020810190506110b4565b868310156110f657848901516110f2601f891682610fff565b8355505b6001600288020188555050505b505050505050565b600060208201905081810360008301526111258184610a75565b905092915050565b7f53747564656e74206e6f74207265676973746572656400000000000000000000600082015250565b6000611163601683610a3a565b915061116e8261112d565b602082019050919050565b6000602082019050818103600083015261119281611156565b9050919050565b7f4e487b7100000000000000000000000000000000000000000000000000000000600052603260045260246000fd5b7f4e487b7100000000000000000000000000000000000000000000000000000000600052601160045260246000fd5b60006112028261082a565b915061120d8361082a565b9250828203905081811115611225576112246111c8565b5b92915050565b7f4e487b7100000000000000000000000000000000000000000000000000000000600052603160045260246000fdfea26469706673582212203169b34de5f3cf8a07554ff47d5f4e35f0bfcddd9d78c9178fcd1288267cf2ff64736f6c634300081a0033",
  "linkReferences": {},
  "deployedLinkReferences": {}
}